{
  "_format": "hh-sol-artifact-1",
  "contractName": "JSNcrypts",
  "sourceName": "contracts/JSNcrypts.sol",
  "abi": [
    {
      "inputs": [
        {
          "internalType": "string",
          "name": "_name",
          "type": "string"
        },
        {
          "internalType": "string",
          "name": "_symbol",
          "type": "string"
        }
      ],
      "stateMutability": "nonpayable",
      "type": "constructor"
    },
    {
      "anonymous": false,
      "inputs": [
        {
          "indexed": true,
          "internalType": "address",
          "name": "account",
          "type": "address"
        },
        {
          "indexed": true,
          "internalType": "address",
          "name": "operator",
          "type": "address"
        },
        {
          "indexed": false,
          "internalType": "bool",
          "name": "approved",
          "type": "bool"
        }
      ],
      "name": "ApprovalForAll",
      "type": "event"
    },
    {
      "anonymous": false,
      "inputs": [
        {
          "indexed": true,
          "internalType": "address",
          "name": "previousOwner",
          "type": "address"
        },
        {
          "indexed": true,
          "internalType": "address",
          "name": "newOwner",
          "type": "address"
        }
      ],
      "name": "OwnershipTransferred",
      "type": "event"
    },
    {
      "anonymous": false,
      "inputs": [
        {
          "indexed": true,
          "internalType": "address",
          "name": "operator",
          "type": "address"
        },
        {
          "indexed": true,
          "internalType": "address",
          "name": "from",
          "type": "address"
        },
        {
          "indexed": true,
          "internalType": "address",
          "name": "to",
          "type": "address"
        },
        {
          "indexed": false,
          "internalType": "uint256[]",
          "name": "ids",
          "type": "uint256[]"
        },
        {
          "indexed": false,
          "internalType": "uint256[]",
          "name": "values",
          "type": "uint256[]"
        }
      ],
      "name": "TransferBatch",
      "type": "event"
    },
    {
      "anonymous": false,
      "inputs": [
        {
          "indexed": true,
          "internalType": "address",
          "name": "operator",
          "type": "address"
        },
        {
          "indexed": true,
          "internalType": "address",
          "name": "from",
          "type": "address"
        },
        {
          "indexed": true,
          "internalType": "address",
          "name": "to",
          "type": "address"
        },
        {
          "indexed": false,
          "internalType": "uint256",
          "name": "id",
          "type": "uint256"
        },
        {
          "indexed": false,
          "internalType": "uint256",
          "name": "value",
          "type": "uint256"
        }
      ],
      "name": "TransferSingle",
      "type": "event"
    },
    {
      "anonymous": false,
      "inputs": [
        {
          "indexed": false,
          "internalType": "string",
          "name": "value",
          "type": "string"
        },
        {
          "indexed": true,
          "internalType": "uint256",
          "name": "id",
          "type": "uint256"
        }
      ],
      "name": "URI",
      "type": "event"
    },
    {
      "inputs": [],
      "name": "authorName",
      "outputs": [
        {
          "internalType": "string",
          "name": "",
          "type": "string"
        }
      ],
      "stateMutability": "view",
      "type": "function"
    },
    {
      "inputs": [
        {
          "internalType": "address",
          "name": "account",
          "type": "address"
        },
        {
          "internalType": "uint256",
          "name": "id",
          "type": "uint256"
        }
      ],
      "name": "balanceOf",
      "outputs": [
        {
          "internalType": "uint256",
          "name": "",
          "type": "uint256"
        }
      ],
      "stateMutability": "view",
      "type": "function"
    },
    {
      "inputs": [
        {
          "internalType": "address[]",
          "name": "accounts",
          "type": "address[]"
        },
        {
          "internalType": "uint256[]",
          "name": "ids",
          "type": "uint256[]"
        }
      ],
      "name": "balanceOfBatch",
      "outputs": [
        {
          "internalType": "uint256[]",
          "name": "",
          "type": "uint256[]"
        }
      ],
      "stateMutability": "view",
      "type": "function"
    },
    {
      "inputs": [
        {
          "internalType": "uint256",
          "name": "",
          "type": "uint256"
        }
      ],
      "name": "blogPosts",
      "outputs": [
        {
          "internalType": "address",
          "name": "author",
          "type": "address"
        },
        {
          "internalType": "string",
          "name": "authorName",
          "type": "string"
        },
        {
          "internalType": "string",
          "name": "title",
          "type": "string"
        },
        {
          "internalType": "string",
          "name": "content",
          "type": "string"
        },
        {
          "internalType": "uint256",
          "name": "ownershipQty",
          "type": "uint256"
        },
        {
          "internalType": "uint256",
          "name": "timestamp",
          "type": "uint256"
        }
      ],
      "stateMutability": "view",
      "type": "function"
    },
    {
      "inputs": [
        {
          "internalType": "uint256",
          "name": "_tokenId",
          "type": "uint256"
        },
        {
          "internalType": "uint256",
          "name": "_ownershipQty",
          "type": "uint256"
        }
      ],
      "name": "contributePost",
      "outputs": [],
      "stateMutability": "payable",
      "type": "function"
    },
    {
      "inputs": [
        {
          "internalType": "uint256",
          "name": "",
          "type": "uint256"
        }
      ],
      "name": "contributerLists",
      "outputs": [
        {
          "internalType": "uint256",
          "name": "contributorCount",
          "type": "uint256"
        },
        {
          "internalType": "uint256",
          "name": "blogId",
          "type": "uint256"
        },
        {
          "internalType": "address",
          "name": "contributorAddress",
          "type": "address"
        },
        {
          "internalType": "string",
          "name": "title",
          "type": "string"
        },
        {
          "internalType": "string",
          "name": "content",
          "type": "string"
        },
        {
          "internalType": "uint256",
          "name": "ownershipQty",
          "type": "uint256"
        },
        {
          "internalType": "uint256",
          "name": "timestamp",
          "type": "uint256"
        }
      ],
      "stateMutability": "view",
      "type": "function"
    },
    {
      "inputs": [],
      "name": "contributorCount",
      "outputs": [
        {
          "internalType": "uint256",
          "name": "",
          "type": "uint256"
        }
      ],
      "stateMutability": "view",
      "type": "function"
    },
    {
      "inputs": [
        {
          "internalType": "string",
          "name": "_title",
          "type": "string"
        },
        {
          "internalType": "string",
          "name": "_content",
          "type": "string"
        },
        {
          "internalType": "uint256",
          "name": "ownershipQty",
          "type": "uint256"
        }
      ],
      "name": "createBlogPost",
      "outputs": [],
      "stateMutability": "nonpayable",
      "type": "function"
    },
    {
      "inputs": [],
      "name": "currentTokenId",
      "outputs": [
        {
          "internalType": "uint256",
          "name": "",
          "type": "uint256"
        }
      ],
      "stateMutability": "view",
      "type": "function"
    },
    {
      "inputs": [
        {
          "internalType": "address",
          "name": "account",
          "type": "address"
        },
        {
          "internalType": "address",
          "name": "operator",
          "type": "address"
        }
      ],
      "name": "isApprovedForAll",
      "outputs": [
        {
          "internalType": "bool",
          "name": "",
          "type": "bool"
        }
      ],
      "stateMutability": "view",
      "type": "function"
    },
    {
      "inputs": [],
      "name": "name",
      "outputs": [
        {
          "internalType": "string",
          "name": "",
          "type": "string"
        }
      ],
      "stateMutability": "view",
      "type": "function"
    },
    {
      "inputs": [],
      "name": "owner",
      "outputs": [
        {
          "internalType": "address",
          "name": "",
          "type": "address"
        }
      ],
      "stateMutability": "view",
      "type": "function"
    },
    {
      "inputs": [],
      "name": "renounceOwnership",
      "outputs": [],
      "stateMutability": "nonpayable",
      "type": "function"
    },
    {
      "inputs": [
        {
          "internalType": "address",
          "name": "from",
          "type": "address"
        },
        {
          "internalType": "address",
          "name": "to",
          "type": "address"
        },
        {
          "internalType": "uint256[]",
          "name": "ids",
          "type": "uint256[]"
        },
        {
          "internalType": "uint256[]",
          "name": "amounts",
          "type": "uint256[]"
        },
        {
          "internalType": "bytes",
          "name": "data",
          "type": "bytes"
        }
      ],
      "name": "safeBatchTransferFrom",
      "outputs": [],
      "stateMutability": "nonpayable",
      "type": "function"
    },
    {
      "inputs": [
        {
          "internalType": "address",
          "name": "from",
          "type": "address"
        },
        {
          "internalType": "address",
          "name": "to",
          "type": "address"
        },
        {
          "internalType": "uint256",
          "name": "id",
          "type": "uint256"
        },
        {
          "internalType": "uint256",
          "name": "amount",
          "type": "uint256"
        },
        {
          "internalType": "bytes",
          "name": "data",
          "type": "bytes"
        }
      ],
      "name": "safeTransferFrom",
      "outputs": [],
      "stateMutability": "nonpayable",
      "type": "function"
    },
    {
      "inputs": [
        {
          "internalType": "address",
          "name": "operator",
          "type": "address"
        },
        {
          "internalType": "bool",
          "name": "approved",
          "type": "bool"
        }
      ],
      "name": "setApprovalForAll",
      "outputs": [],
      "stateMutability": "nonpayable",
      "type": "function"
    },
    {
      "inputs": [
        {
          "internalType": "bytes4",
          "name": "interfaceId",
          "type": "bytes4"
        }
      ],
      "name": "supportsInterface",
      "outputs": [
        {
          "internalType": "bool",
          "name": "",
          "type": "bool"
        }
      ],
      "stateMutability": "view",
      "type": "function"
    },
    {
      "inputs": [],
      "name": "symbol",
      "outputs": [
        {
          "internalType": "string",
          "name": "",
          "type": "string"
        }
      ],
      "stateMutability": "view",
      "type": "function"
    },
    {
      "inputs": [
        {
          "internalType": "address",
          "name": "newOwner",
          "type": "address"
        }
      ],
      "name": "transferOwnership",
      "outputs": [],
      "stateMutability": "nonpayable",
      "type": "function"
    },
    {
      "inputs": [
        {
          "internalType": "uint256",
          "name": "tokenId",
          "type": "uint256"
        }
      ],
      "name": "uri",
      "outputs": [
        {
          "internalType": "string",
          "name": "",
          "type": "string"
        }
      ],
      "stateMutability": "view",
      "type": "function"
    },
    {
      "inputs": [],
      "name": "withdrawBalance",
      "outputs": [],
      "stateMutability": "nonpayable",
      "type": "function"
    }
  ],
  "bytecode": "0x60806040526040518060400160405280600381526020017f4a534e0000000000000000000000000000000000000000000000000000000000815250600890816200004a919062000449565b503480156200005857600080fd5b50604051620050113803806200501183398181016040528101906200007e919062000694565b604051806020016040528060008152506200009f81620000ec60201b60201c565b50620000c0620000b46200010160201b60201c565b6200010960201b60201c565b8160099081620000d1919062000449565b5080600a9081620000e3919062000449565b50505062000719565b8060029081620000fd919062000449565b5050565b600033905090565b6000600360009054906101000a900473ffffffffffffffffffffffffffffffffffffffff16905081600360006101000a81548173ffffffffffffffffffffffffffffffffffffffff021916908373ffffffffffffffffffffffffffffffffffffffff1602179055508173ffffffffffffffffffffffffffffffffffffffff168173ffffffffffffffffffffffffffffffffffffffff167f8be0079c531659141344cd1fd0a4f28419497f9722a3daafe3b4186f6b6457e060405160405180910390a35050565b600081519050919050565b7f4e487b7100000000000000000000000000000000000000000000000000000000600052604160045260246000fd5b7f4e487b7100000000000000000000000000000000000000000000000000000000600052602260045260246000fd5b600060028204905060018216806200025157607f821691505b60208210810362000267576200026662000209565b5b50919050565b60008190508160005260206000209050919050565b60006020601f8301049050919050565b600082821b905092915050565b600060088302620002d17fffffffffffffffffffffffffffffffffffffffffffffffffffffffffffffffff8262000292565b620002dd868362000292565b95508019841693508086168417925050509392505050565b6000819050919050565b6000819050919050565b60006200032a620003246200031e84620002f5565b620002ff565b620002f5565b9050919050565b6000819050919050565b620003468362000309565b6200035e620003558262000331565b8484546200029f565b825550505050565b600090565b6200037562000366565b620003828184846200033b565b505050565b5b81811015620003aa576200039e6000826200036b565b60018101905062000388565b5050565b601f821115620003f957620003c3816200026d565b620003ce8462000282565b81016020851015620003de578190505b620003f6620003ed8562000282565b83018262000387565b50505b505050565b600082821c905092915050565b60006200041e60001984600802620003fe565b1980831691505092915050565b60006200043983836200040b565b9150826002028217905092915050565b6200045482620001cf565b67ffffffffffffffff81111562000470576200046f620001da565b5b6200047c825462000238565b62000489828285620003ae565b600060209050601f831160018114620004c15760008415620004ac578287015190505b620004b885826200042b565b86555062000528565b601f198416620004d1866200026d565b60005b82811015620004fb57848901518255600182019150602085019450602081019050620004d4565b868310156200051b578489015162000517601f8916826200040b565b8355505b6001600288020188555050505b505050505050565b6000604051905090565b600080fd5b600080fd5b600080fd5b600080fd5b6000601f19601f8301169050919050565b6200056a826200054e565b810181811067ffffffffffffffff821117156200058c576200058b620001da565b5b80604052505050565b6000620005a162000530565b9050620005af82826200055f565b919050565b600067ffffffffffffffff821115620005d257620005d1620001da565b5b620005dd826200054e565b9050602081019050919050565b60005b838110156200060a578082015181840152602081019050620005ed565b60008484015250505050565b60006200062d6200062784620005b4565b62000595565b9050828152602081018484840111156200064c576200064b62000549565b5b62000659848285620005ea565b509392505050565b600082601f83011262000679576200067862000544565b5b81516200068b84826020860162000616565b91505092915050565b60008060408385031215620006ae57620006ad6200053a565b5b600083015167ffffffffffffffff811115620006cf57620006ce6200053f565b5b620006dd8582860162000661565b925050602083015167ffffffffffffffff8111156200070157620007006200053f565b5b6200070f8582860162000661565b9150509250929050565b6148e880620007296000396000f3fe6080604052600436106101285760003560e01c80638da5cb5b116100ab578063da9896d31161006f578063da9896d3146103d6578063e985e9c514610419578063ecfd892814610456578063ed6da23a14610481578063f242432a146104aa578063f2fde38b146104d357610128565b80638da5cb5b146102f957806395d89b4114610324578063a22cb4651461034f578063b04299c514610378578063cd5b3285146103ba57610128565b80632eb2c2d6116100f25780632eb2c2d61461023a5780634e1273f4146102635780635fd8c710146102a05780636a64aabb146102b7578063715018a6146102e257610128565b80629a9b7b1461012d578062fdd58e1461015857806301ffc9a71461019557806306fdde03146101d25780630e89341c146101fd575b600080fd5b34801561013957600080fd5b506101426104fc565b60405161014f91906128b1565b60405180910390f35b34801561016457600080fd5b5061017f600480360381019061017a919061296a565b610502565b60405161018c91906128b1565b60405180910390f35b3480156101a157600080fd5b506101bc60048036038101906101b79190612a02565b6105ca565b6040516101c99190612a4a565b60405180910390f35b3480156101de57600080fd5b506101e76106ac565b6040516101f49190612af5565b60405180910390f35b34801561020957600080fd5b50610224600480360381019061021f9190612b17565b61073a565b6040516102319190612af5565b60405180910390f35b34801561024657600080fd5b50610261600480360381019061025c9190612d41565b6107b3565b005b34801561026f57600080fd5b5061028a60048036038101906102859190612ed3565b610854565b6040516102979190613009565b60405180910390f35b3480156102ac57600080fd5b506102b561096d565b005b3480156102c357600080fd5b506102cc610a08565b6040516102d99190612af5565b60405180910390f35b3480156102ee57600080fd5b506102f7610a96565b005b34801561030557600080fd5b5061030e610aaa565b60405161031b919061303a565b60405180910390f35b34801561033057600080fd5b50610339610ad4565b6040516103469190612af5565b60405180910390f35b34801561035b57600080fd5b5061037660048036038101906103719190613081565b610b62565b005b34801561038457600080fd5b5061039f600480360381019061039a9190612b17565b610b78565b6040516103b1969594939291906130c1565b60405180910390f35b6103d460048036038101906103cf9190613137565b610d6c565b005b3480156103e257600080fd5b506103fd60048036038101906103f89190612b17565b61113d565b6040516104109796959493929190613177565b60405180910390f35b34801561042557600080fd5b50610440600480360381019061043b91906131f4565b6112af565b60405161044d9190612a4a565b60405180910390f35b34801561046257600080fd5b5061046b611343565b60405161047891906128b1565b60405180910390f35b34801561048d57600080fd5b506104a860048036038101906104a391906132d5565b611349565b005b3480156104b657600080fd5b506104d160048036038101906104cc9190613360565b61159d565b005b3480156104df57600080fd5b506104fa60048036038101906104f591906133f7565b61163e565b005b60075481565b60008073ffffffffffffffffffffffffffffffffffffffff168373ffffffffffffffffffffffffffffffffffffffff1603610572576040517f08c379a000000000000000000000000000000000000000000000000000000000815260040161056990613496565b60405180910390fd5b60008083815260200190815260200160002060008473ffffffffffffffffffffffffffffffffffffffff1673ffffffffffffffffffffffffffffffffffffffff16815260200190815260200160002054905092915050565b60007fd9b67a26000000000000000000000000000000000000000000000000000000007bffffffffffffffffffffffffffffffffffffffffffffffffffffffff1916827bffffffffffffffffffffffffffffffffffffffffffffffffffffffff1916148061069557507f0e89341c000000000000000000000000000000000000000000000000000000007bffffffffffffffffffffffffffffffffffffffffffffffffffffffff1916827bffffffffffffffffffffffffffffffffffffffffffffffffffffffff1916145b806106a557506106a4826116c1565b5b9050919050565b600980546106b9906134e5565b80601f01602080910402602001604051908101604052809291908181526020018280546106e5906134e5565b80156107325780601f1061070757610100808354040283529160200191610732565b820191906000526020600020905b81548152906001019060200180831161071557829003601f168201915b505050505081565b60606107458261172b565b610784576040517f08c379a000000000000000000000000000000000000000000000000000000000815260040161077b90613562565b60405180910390fd5b61078d8261175a565b60405160200161079d919061360a565b6040516020818303038152906040529050919050565b6107bb6117b6565b73ffffffffffffffffffffffffffffffffffffffff168573ffffffffffffffffffffffffffffffffffffffff1614806108015750610800856107fb6117b6565b6112af565b5b610840576040517f08c379a00000000000000000000000000000000000000000000000000000000081526004016108379061369e565b60405180910390fd5b61084d85858585856117be565b5050505050565b6060815183511461089a576040517f08c379a000000000000000000000000000000000000000000000000000000000815260040161089190613730565b60405180910390fd5b6000835167ffffffffffffffff8111156108b7576108b6612b49565b5b6040519080825280602002602001820160405280156108e55781602001602082028036833780820191505090505b50905060005b84518110156109625761093285828151811061090a57610909613750565b5b602002602001015185838151811061092557610924613750565b5b6020026020010151610502565b82828151811061094557610944613750565b5b6020026020010181815250508061095b906137ae565b90506108eb565b508091505092915050565b610975611adf565b600047116109b8576040517f08c379a00000000000000000000000000000000000000000000000000000000081526004016109af90613842565b60405180910390fd5b6109c0610aaa565b73ffffffffffffffffffffffffffffffffffffffff166108fc479081150290604051600060405180830381858888f19350505050158015610a05573d6000803e3d6000fd5b50565b60088054610a15906134e5565b80601f0160208091040260200160405190810160405280929190818152602001828054610a41906134e5565b8015610a8e5780601f10610a6357610100808354040283529160200191610a8e565b820191906000526020600020905b815481529060010190602001808311610a7157829003601f168201915b505050505081565b610a9e611adf565b610aa86000611b5d565b565b6000600360009054906101000a900473ffffffffffffffffffffffffffffffffffffffff16905090565b600a8054610ae1906134e5565b80601f0160208091040260200160405190810160405280929190818152602001828054610b0d906134e5565b8015610b5a5780601f10610b2f57610100808354040283529160200191610b5a565b820191906000526020600020905b815481529060010190602001808311610b3d57829003601f168201915b505050505081565b610b74610b6d6117b6565b8383611c23565b5050565b60056020528060005260406000206000915090508060000160009054906101000a900473ffffffffffffffffffffffffffffffffffffffff1690806001018054610bc1906134e5565b80601f0160208091040260200160405190810160405280929190818152602001828054610bed906134e5565b8015610c3a5780601f10610c0f57610100808354040283529160200191610c3a565b820191906000526020600020905b815481529060010190602001808311610c1d57829003601f168201915b505050505090806002018054610c4f906134e5565b80601f0160208091040260200160405190810160405280929190818152602001828054610c7b906134e5565b8015610cc85780601f10610c9d57610100808354040283529160200191610cc8565b820191906000526020600020905b815481529060010190602001808311610cab57829003601f168201915b505050505090806003018054610cdd906134e5565b80601f0160208091040260200160405190810160405280929190818152602001828054610d09906134e5565b8015610d565780601f10610d2b57610100808354040283529160200191610d56565b820191906000526020600020905b815481529060010190602001808311610d3957829003601f168201915b5050505050908060040154908060050154905086565b6000610d8967016345785d8a000083611d8f90919063ffffffff16565b905080341015610dce576040517f08c379a0000000000000000000000000000000000000000000000000000000008152600401610dc5906138ae565b60405180910390fd5b6000600560008581526020019081526020016000209050600073ffffffffffffffffffffffffffffffffffffffff168160000160009054906101000a900473ffffffffffffffffffffffffffffffffffffffff1673ffffffffffffffffffffffffffffffffffffffff1603610e78576040517f08c379a0000000000000000000000000000000000000000000000000000000008152600401610e6f9061391a565b60405180910390fd5b8060040154831115610ebf576040517f08c379a0000000000000000000000000000000000000000000000000000000008152600401610eb690613986565b60405180910390fd5b610ee2610eca610aaa565b33868660405180602001604052806000815250611da5565b610ef983826004015461204090919063ffffffff16565b8160040181905550600060065490506040518060e001604052808281526020018681526020013373ffffffffffffffffffffffffffffffffffffffff168152602001836002018054610f4a906134e5565b80601f0160208091040260200160405190810160405280929190818152602001828054610f76906134e5565b8015610fc35780601f10610f9857610100808354040283529160200191610fc3565b820191906000526020600020905b815481529060010190602001808311610fa657829003601f168201915b50505050508152602001836003018054610fdc906134e5565b80601f0160208091040260200160405190810160405280929190818152602001828054611008906134e5565b80156110555780601f1061102a57610100808354040283529160200191611055565b820191906000526020600020905b81548152906001019060200180831161103857829003601f168201915b505050505081526020018581526020014281525060046000838152602001908152602001600020600082015181600001556020820151816001015560408201518160020160006101000a81548173ffffffffffffffffffffffffffffffffffffffff021916908373ffffffffffffffffffffffffffffffffffffffff16021790555060608201518160030190816110ec9190613b52565b5060808201518160040190816111029190613b52565b5060a0820151816005015560c08201518160060155905050611130600160065461205690919063ffffffff16565b6006819055505050505050565b60046020528060005260406000206000915090508060000154908060010154908060020160009054906101000a900473ffffffffffffffffffffffffffffffffffffffff1690806003018054611192906134e5565b80601f01602080910402602001604051908101604052809291908181526020018280546111be906134e5565b801561120b5780601f106111e05761010080835404028352916020019161120b565b820191906000526020600020905b8154815290600101906020018083116111ee57829003601f168201915b505050505090806004018054611220906134e5565b80601f016020809104026020016040519081016040528092919081815260200182805461124c906134e5565b80156112995780601f1061126e57610100808354040283529160200191611299565b820191906000526020600020905b81548152906001019060200180831161127c57829003601f168201915b5050505050908060050154908060060154905087565b6000600160008473ffffffffffffffffffffffffffffffffffffffff1673ffffffffffffffffffffffffffffffffffffffff16815260200190815260200160002060008373ffffffffffffffffffffffffffffffffffffffff1673ffffffffffffffffffffffffffffffffffffffff16815260200190815260200160002060009054906101000a900460ff16905092915050565b60065481565b611351611adf565b6000835111611395576040517f08c379a000000000000000000000000000000000000000000000000000000000815260040161138c90613c70565b60405180910390fd5b60008251116113d9576040517f08c379a00000000000000000000000000000000000000000000000000000000081526004016113d090613cdc565b60405180910390fd5b600060075490506040518060c001604052803373ffffffffffffffffffffffffffffffffffffffff16815260200160088054611414906134e5565b80601f0160208091040260200160405190810160405280929190818152602001828054611440906134e5565b801561148d5780601f106114625761010080835404028352916020019161148d565b820191906000526020600020905b81548152906001019060200180831161147057829003601f168201915b50505050508152602001858152602001848152602001838152602001428152506005600083815260200190815260200160002060008201518160000160006101000a81548173ffffffffffffffffffffffffffffffffffffffff021916908373ffffffffffffffffffffffffffffffffffffffff160217905550602082015181600101908161151c9190613b52565b5060408201518160020190816115329190613b52565b5060608201518160030190816115489190613b52565b506080820151816004015560a0820151816005015590505061157b3382846040518060200160405280600081525061206c565b611591600160075461205690919063ffffffff16565b60078190555050505050565b6115a56117b6565b73ffffffffffffffffffffffffffffffffffffffff168573ffffffffffffffffffffffffffffffffffffffff1614806115eb57506115ea856115e56117b6565b6112af565b5b61162a576040517f08c379a00000000000000000000000000000000000000000000000000000000081526004016116219061369e565b60405180910390fd5b6116378585858585611da5565b5050505050565b611646611adf565b600073ffffffffffffffffffffffffffffffffffffffff168173ffffffffffffffffffffffffffffffffffffffff16036116b5576040517f08c379a00000000000000000000000000000000000000000000000000000000081526004016116ac90613d6e565b60405180910390fd5b6116be81611b5d565b50565b60007f01ffc9a7000000000000000000000000000000000000000000000000000000007bffffffffffffffffffffffffffffffffffffffffffffffffffffffff1916827bffffffffffffffffffffffffffffffffffffffffffffffffffffffff1916149050919050565b60008060056000848152602001908152602001600020600201805461174f906134e5565b905014159050919050565b6060600060056000848152602001908152602001600020905080600201816001018260030161178c846005015461221c565b60405160200161179f949392919061404b565b604051602081830303815290604052915050919050565b600033905090565b8151835114611802576040517f08c379a00000000000000000000000000000000000000000000000000000000081526004016117f990614169565b60405180910390fd5b600073ffffffffffffffffffffffffffffffffffffffff168473ffffffffffffffffffffffffffffffffffffffff1603611871576040517f08c379a0000000000000000000000000000000000000000000000000000000008152600401611868906141fb565b60405180910390fd5b600061187b6117b6565b905061188b8187878787876122ea565b60005b8451811015611a3c5760008582815181106118ac576118ab613750565b5b6020026020010151905060008583815181106118cb576118ca613750565b5b60200260200101519050600080600084815260200190815260200160002060008b73ffffffffffffffffffffffffffffffffffffffff1673ffffffffffffffffffffffffffffffffffffffff1681526020019081526020016000205490508181101561196c576040517f08c379a00000000000000000000000000000000000000000000000000000000081526004016119639061428d565b60405180910390fd5b81810360008085815260200190815260200160002060008c73ffffffffffffffffffffffffffffffffffffffff1673ffffffffffffffffffffffffffffffffffffffff168152602001908152602001600020819055508160008085815260200190815260200160002060008b73ffffffffffffffffffffffffffffffffffffffff1673ffffffffffffffffffffffffffffffffffffffff1681526020019081526020016000206000828254611a2191906142ad565b9250508190555050505080611a35906137ae565b905061188e565b508473ffffffffffffffffffffffffffffffffffffffff168673ffffffffffffffffffffffffffffffffffffffff168273ffffffffffffffffffffffffffffffffffffffff167f4a39dc06d4c0dbc64b70af90fd698a233a518aa5d07e595d983b8c0526c8f7fb8787604051611ab39291906142e1565b60405180910390a4611ac98187878787876122f2565b611ad78187878787876122fa565b505050505050565b611ae76117b6565b73ffffffffffffffffffffffffffffffffffffffff16611b05610aaa565b73ffffffffffffffffffffffffffffffffffffffff1614611b5b576040517f08c379a0000000000000000000000000000000000000000000000000000000008152600401611b5290614364565b60405180910390fd5b565b6000600360009054906101000a900473ffffffffffffffffffffffffffffffffffffffff16905081600360006101000a81548173ffffffffffffffffffffffffffffffffffffffff021916908373ffffffffffffffffffffffffffffffffffffffff1602179055508173ffffffffffffffffffffffffffffffffffffffff168173ffffffffffffffffffffffffffffffffffffffff167f8be0079c531659141344cd1fd0a4f28419497f9722a3daafe3b4186f6b6457e060405160405180910390a35050565b8173ffffffffffffffffffffffffffffffffffffffff168373ffffffffffffffffffffffffffffffffffffffff1603611c91576040517f08c379a0000000000000000000000000000000000000000000000000000000008152600401611c88906143f6565b60405180910390fd5b80600160008573ffffffffffffffffffffffffffffffffffffffff1673ffffffffffffffffffffffffffffffffffffffff16815260200190815260200160002060008473ffffffffffffffffffffffffffffffffffffffff1673ffffffffffffffffffffffffffffffffffffffff16815260200190815260200160002060006101000a81548160ff0219169083151502179055508173ffffffffffffffffffffffffffffffffffffffff168373ffffffffffffffffffffffffffffffffffffffff167f17307eab39ab6107e8899845ad3d59bd9653f200f220920489ca2b5937696c3183604051611d829190612a4a565b60405180910390a3505050565b60008183611d9d9190614416565b905092915050565b600073ffffffffffffffffffffffffffffffffffffffff168473ffffffffffffffffffffffffffffffffffffffff1603611e14576040517f08c379a0000000000000000000000000000000000000000000000000000000008152600401611e0b906141fb565b60405180910390fd5b6000611e1e6117b6565b90506000611e2b856124d1565b90506000611e38856124d1565b9050611e488389898585896122ea565b600080600088815260200190815260200160002060008a73ffffffffffffffffffffffffffffffffffffffff1673ffffffffffffffffffffffffffffffffffffffff16815260200190815260200160002054905085811015611edf576040517f08c379a0000000000000000000000000000000000000000000000000000000008152600401611ed69061428d565b60405180910390fd5b85810360008089815260200190815260200160002060008b73ffffffffffffffffffffffffffffffffffffffff1673ffffffffffffffffffffffffffffffffffffffff168152602001908152602001600020819055508560008089815260200190815260200160002060008a73ffffffffffffffffffffffffffffffffffffffff1673ffffffffffffffffffffffffffffffffffffffff1681526020019081526020016000206000828254611f9491906142ad565b925050819055508773ffffffffffffffffffffffffffffffffffffffff168973ffffffffffffffffffffffffffffffffffffffff168573ffffffffffffffffffffffffffffffffffffffff167fc3d58168c5ae7397731d063d5bbf3d657854427343f4c083240f7aacaa2d0f628a8a604051612011929190614458565b60405180910390a4612027848a8a86868a6122f2565b612035848a8a8a8a8a61254b565b505050505050505050565b6000818361204e9190614481565b905092915050565b6000818361206491906142ad565b905092915050565b600073ffffffffffffffffffffffffffffffffffffffff168473ffffffffffffffffffffffffffffffffffffffff16036120db576040517f08c379a00000000000000000000000000000000000000000000000000000000081526004016120d290614527565b60405180910390fd5b60006120e56117b6565b905060006120f2856124d1565b905060006120ff856124d1565b9050612110836000898585896122ea565b8460008088815260200190815260200160002060008973ffffffffffffffffffffffffffffffffffffffff1673ffffffffffffffffffffffffffffffffffffffff168152602001908152602001600020600082825461216f91906142ad565b925050819055508673ffffffffffffffffffffffffffffffffffffffff16600073ffffffffffffffffffffffffffffffffffffffff168473ffffffffffffffffffffffffffffffffffffffff167fc3d58168c5ae7397731d063d5bbf3d657854427343f4c083240f7aacaa2d0f6289896040516121ed929190614458565b60405180910390a4612204836000898585896122f2565b6122138360008989898961254b565b50505050505050565b60606000600161222b84612722565b01905060008167ffffffffffffffff81111561224a57612249612b49565b5b6040519080825280601f01601f19166020018201604052801561227c5781602001600182028036833780820191505090505b509050600082602001820190505b6001156122df578080600190039150507f3031323334353637383961626364656600000000000000000000000000000000600a86061a8153600a85816122d3576122d2614547565b5b0494506000850361228a575b819350505050919050565b505050505050565b505050505050565b6123198473ffffffffffffffffffffffffffffffffffffffff16612875565b156124c9578373ffffffffffffffffffffffffffffffffffffffff1663bc197c8187878686866040518663ffffffff1660e01b815260040161235f9594939291906145cb565b6020604051808303816000875af192505050801561239b57506040513d601f19601f820116820180604052508101906123989190614648565b60015b612440576123a7614682565b806308c379a00361240357506123bb6146a4565b806123c65750612405565b806040517f08c379a00000000000000000000000000000000000000000000000000000000081526004016123fa9190612af5565b60405180910390fd5b505b6040517f08c379a0000000000000000000000000000000000000000000000000000000008152600401612437906147a6565b60405180910390fd5b63bc197c8160e01b7bffffffffffffffffffffffffffffffffffffffffffffffffffffffff1916817bffffffffffffffffffffffffffffffffffffffffffffffffffffffff1916146124c7576040517f08c379a00000000000000000000000000000000000000000000000000000000081526004016124be90614838565b60405180910390fd5b505b505050505050565b60606000600167ffffffffffffffff8111156124f0576124ef612b49565b5b60405190808252806020026020018201604052801561251e5781602001602082028036833780820191505090505b509050828160008151811061253657612535613750565b5b60200260200101818152505080915050919050565b61256a8473ffffffffffffffffffffffffffffffffffffffff16612875565b1561271a578373ffffffffffffffffffffffffffffffffffffffff1663f23a6e6187878686866040518663ffffffff1660e01b81526004016125b0959493929190614858565b6020604051808303816000875af19250505080156125ec57506040513d601f19601f820116820180604052508101906125e99190614648565b60015b612691576125f8614682565b806308c379a003612654575061260c6146a4565b806126175750612656565b806040517f08c379a000000000000000000000000000000000000000000000000000000000815260040161264b9190612af5565b60405180910390fd5b505b6040517f08c379a0000000000000000000000000000000000000000000000000000000008152600401612688906147a6565b60405180910390fd5b63f23a6e6160e01b7bffffffffffffffffffffffffffffffffffffffffffffffffffffffff1916817bffffffffffffffffffffffffffffffffffffffffffffffffffffffff191614612718576040517f08c379a000000000000000000000000000000000000000000000000000000000815260040161270f90614838565b60405180910390fd5b505b505050505050565b600080600090507a184f03e93ff9f4daa797ed6e38ed64bf6a1f0100000000000000008310612780577a184f03e93ff9f4daa797ed6e38ed64bf6a1f010000000000000000838161277657612775614547565b5b0492506040810190505b6d04ee2d6d415b85acef810000000083106127bd576d04ee2d6d415b85acef810000000083816127b3576127b2614547565b5b0492506020810190505b662386f26fc1000083106127ec57662386f26fc1000083816127e2576127e1614547565b5b0492506010810190505b6305f5e1008310612815576305f5e100838161280b5761280a614547565b5b0492506008810190505b612710831061283a5761271083816128305761282f614547565b5b0492506004810190505b6064831061285d576064838161285357612852614547565b5b0492506002810190505b600a831061286c576001810190505b80915050919050565b6000808273ffffffffffffffffffffffffffffffffffffffff163b119050919050565b6000819050919050565b6128ab81612898565b82525050565b60006020820190506128c660008301846128a2565b92915050565b6000604051905090565b600080fd5b600080fd5b600073ffffffffffffffffffffffffffffffffffffffff82169050919050565b600061290b826128e0565b9050919050565b61291b81612900565b811461292657600080fd5b50565b60008135905061293881612912565b92915050565b61294781612898565b811461295257600080fd5b50565b6000813590506129648161293e565b92915050565b60008060408385031215612981576129806128d6565b5b600061298f85828601612929565b92505060206129a085828601612955565b9150509250929050565b60007fffffffff0000000000000000000000000000000000000000000000000000000082169050919050565b6129df816129aa565b81146129ea57600080fd5b50565b6000813590506129fc816129d6565b92915050565b600060208284031215612a1857612a176128d6565b5b6000612a26848285016129ed565b91505092915050565b60008115159050919050565b612a4481612a2f565b82525050565b6000602082019050612a5f6000830184612a3b565b92915050565b600081519050919050565b600082825260208201905092915050565b60005b83811015612a9f578082015181840152602081019050612a84565b60008484015250505050565b6000601f19601f8301169050919050565b6000612ac782612a65565b612ad18185612a70565b9350612ae1818560208601612a81565b612aea81612aab565b840191505092915050565b60006020820190508181036000830152612b0f8184612abc565b905092915050565b600060208284031215612b2d57612b2c6128d6565b5b6000612b3b84828501612955565b91505092915050565b600080fd5b7f4e487b7100000000000000000000000000000000000000000000000000000000600052604160045260246000fd5b612b8182612aab565b810181811067ffffffffffffffff82111715612ba057612b9f612b49565b5b80604052505050565b6000612bb36128cc565b9050612bbf8282612b78565b919050565b600067ffffffffffffffff821115612bdf57612bde612b49565b5b602082029050602081019050919050565b600080fd5b6000612c08612c0384612bc4565b612ba9565b90508083825260208201905060208402830185811115612c2b57612c2a612bf0565b5b835b81811015612c545780612c408882612955565b845260208401935050602081019050612c2d565b5050509392505050565b600082601f830112612c7357612c72612b44565b5b8135612c83848260208601612bf5565b91505092915050565b600080fd5b600067ffffffffffffffff821115612cac57612cab612b49565b5b612cb582612aab565b9050602081019050919050565b82818337600083830152505050565b6000612ce4612cdf84612c91565b612ba9565b905082815260208101848484011115612d0057612cff612c8c565b5b612d0b848285612cc2565b509392505050565b600082601f830112612d2857612d27612b44565b5b8135612d38848260208601612cd1565b91505092915050565b600080600080600060a08688031215612d5d57612d5c6128d6565b5b6000612d6b88828901612929565b9550506020612d7c88828901612929565b945050604086013567ffffffffffffffff811115612d9d57612d9c6128db565b5b612da988828901612c5e565b935050606086013567ffffffffffffffff811115612dca57612dc96128db565b5b612dd688828901612c5e565b925050608086013567ffffffffffffffff811115612df757612df66128db565b5b612e0388828901612d13565b9150509295509295909350565b600067ffffffffffffffff821115612e2b57612e2a612b49565b5b602082029050602081019050919050565b6000612e4f612e4a84612e10565b612ba9565b90508083825260208201905060208402830185811115612e7257612e71612bf0565b5b835b81811015612e9b5780612e878882612929565b845260208401935050602081019050612e74565b5050509392505050565b600082601f830112612eba57612eb9612b44565b5b8135612eca848260208601612e3c565b91505092915050565b60008060408385031215612eea57612ee96128d6565b5b600083013567ffffffffffffffff811115612f0857612f076128db565b5b612f1485828601612ea5565b925050602083013567ffffffffffffffff811115612f3557612f346128db565b5b612f4185828601612c5e565b9150509250929050565b600081519050919050565b600082825260208201905092915050565b6000819050602082019050919050565b612f8081612898565b82525050565b6000612f928383612f77565b60208301905092915050565b6000602082019050919050565b6000612fb682612f4b565b612fc08185612f56565b9350612fcb83612f67565b8060005b83811015612ffc578151612fe38882612f86565b9750612fee83612f9e565b925050600181019050612fcf565b5085935050505092915050565b600060208201905081810360008301526130238184612fab565b905092915050565b61303481612900565b82525050565b600060208201905061304f600083018461302b565b92915050565b61305e81612a2f565b811461306957600080fd5b50565b60008135905061307b81613055565b92915050565b60008060408385031215613098576130976128d6565b5b60006130a685828601612929565b92505060206130b78582860161306c565b9150509250929050565b600060c0820190506130d6600083018961302b565b81810360208301526130e88188612abc565b905081810360408301526130fc8187612abc565b905081810360608301526131108186612abc565b905061311f60808301856128a2565b61312c60a08301846128a2565b979650505050505050565b6000806040838503121561314e5761314d6128d6565b5b600061315c85828601612955565b925050602061316d85828601612955565b9150509250929050565b600060e08201905061318c600083018a6128a2565b61319960208301896128a2565b6131a6604083018861302b565b81810360608301526131b88187612abc565b905081810360808301526131cc8186612abc565b90506131db60a08301856128a2565b6131e860c08301846128a2565b98975050505050505050565b6000806040838503121561320b5761320a6128d6565b5b600061321985828601612929565b925050602061322a85828601612929565b9150509250929050565b600067ffffffffffffffff82111561324f5761324e612b49565b5b61325882612aab565b9050602081019050919050565b600061327861327384613234565b612ba9565b90508281526020810184848401111561329457613293612c8c565b5b61329f848285612cc2565b509392505050565b600082601f8301126132bc576132bb612b44565b5b81356132cc848260208601613265565b91505092915050565b6000806000606084860312156132ee576132ed6128d6565b5b600084013567ffffffffffffffff81111561330c5761330b6128db565b5b613318868287016132a7565b935050602084013567ffffffffffffffff811115613339576133386128db565b5b613345868287016132a7565b925050604061335686828701612955565b9150509250925092565b600080600080600060a0868803121561337c5761337b6128d6565b5b600061338a88828901612929565b955050602061339b88828901612929565b94505060406133ac88828901612955565b93505060606133bd88828901612955565b925050608086013567ffffffffffffffff8111156133de576133dd6128db565b5b6133ea88828901612d13565b9150509295509295909350565b60006020828403121561340d5761340c6128d6565b5b600061341b84828501612929565b91505092915050565b7f455243313135353a2061646472657373207a65726f206973206e6f742061207660008201527f616c6964206f776e657200000000000000000000000000000000000000000000602082015250565b6000613480602a83612a70565b915061348b82613424565b604082019050919050565b600060208201905081810360008301526134af81613473565b9050919050565b7f4e487b7100000000000000000000000000000000000000000000000000000000600052602260045260246000fd5b600060028204905060018216806134fd57607f821691505b6020821081036135105761350f6134b6565b5b50919050565b7f546f6b656e20646f6573206e6f74206578697374000000000000000000000000600082015250565b600061354c601483612a70565b915061355782613516565b602082019050919050565b6000602082019050818103600083015261357b8161353f565b9050919050565b600081905092915050565b7f646174613a6170706c69636174696f6e2f6a736f6e3b6261736536342c000000600082015250565b60006135c3601d83613582565b91506135ce8261358d565b601d82019050919050565b60006135e482612a65565b6135ee8185613582565b93506135fe818560208601612a81565b80840191505092915050565b6000613615826135b6565b915061362182846135d9565b915081905092915050565b7f455243313135353a2063616c6c6572206973206e6f7420746f6b656e206f776e60008201527f6572206f7220617070726f766564000000000000000000000000000000000000602082015250565b6000613688602e83612a70565b91506136938261362c565b604082019050919050565b600060208201905081810360008301526136b78161367b565b9050919050565b7f455243313135353a206163636f756e747320616e6420696473206c656e67746860008201527f206d69736d617463680000000000000000000000000000000000000000000000602082015250565b600061371a602983612a70565b9150613725826136be565b604082019050919050565b600060208201905081810360008301526137498161370d565b9050919050565b7f4e487b7100000000000000000000000000000000000000000000000000000000600052603260045260246000fd5b7f4e487b7100000000000000000000000000000000000000000000000000000000600052601160045260246000fd5b60006137b982612898565b91507fffffffffffffffffffffffffffffffffffffffffffffffffffffffffffffffff82036137eb576137ea61377f565b5b600182019050919050565b7f436f6e74726163742062616c616e6365206973207a65726f0000000000000000600082015250565b600061382c601883612a70565b9150613837826137f6565b602082019050919050565b6000602082019050818103600083015261385b8161381f565b9050919050565b7f496e73756666696369656e74207061796d656e74000000000000000000000000600082015250565b6000613898601483612a70565b91506138a382613862565b602082019050919050565b600060208201905081810360008301526138c78161388b565b9050919050565b7f496e76616c696420626c6f6720706f7374204944000000000000000000000000600082015250565b6000613904601483612a70565b915061390f826138ce565b602082019050919050565b60006020820190508181036000830152613933816138f7565b9050919050565b7f496e73756666696369656e74207175616e7469747920617661696c61626c6500600082015250565b6000613970601f83612a70565b915061397b8261393a565b602082019050919050565b6000602082019050818103600083015261399f81613963565b9050919050565b60008190508160005260206000209050919050565b60006020601f8301049050919050565b600082821b905092915050565b600060088302613a087fffffffffffffffffffffffffffffffffffffffffffffffffffffffffffffffff826139cb565b613a1286836139cb565b95508019841693508086168417925050509392505050565b6000819050919050565b6000613a4f613a4a613a4584612898565b613a2a565b612898565b9050919050565b6000819050919050565b613a6983613a34565b613a7d613a7582613a56565b8484546139d8565b825550505050565b600090565b613a92613a85565b613a9d818484613a60565b505050565b5b81811015613ac157613ab6600082613a8a565b600181019050613aa3565b5050565b601f821115613b0657613ad7816139a6565b613ae0846139bb565b81016020851015613aef578190505b613b03613afb856139bb565b830182613aa2565b50505b505050565b600082821c905092915050565b6000613b2960001984600802613b0b565b1980831691505092915050565b6000613b428383613b18565b9150826002028217905092915050565b613b5b82612a65565b67ffffffffffffffff811115613b7457613b73612b49565b5b613b7e82546134e5565b613b89828285613ac5565b600060209050601f831160018114613bbc5760008415613baa578287015190505b613bb48582613b36565b865550613c1c565b601f198416613bca866139a6565b60005b82811015613bf257848901518255600182019150602085019450602081019050613bcd565b86831015613c0f5784890151613c0b601f891682613b18565b8355505b6001600288020188555050505b505050505050565b7f5469746c652063616e6e6f7420626520656d7074790000000000000000000000600082015250565b6000613c5a601583612a70565b9150613c6582613c24565b602082019050919050565b60006020820190508181036000830152613c8981613c4d565b9050919050565b7f436f6e74656e742063616e6e6f7420626520656d707479000000000000000000600082015250565b6000613cc6601783612a70565b9150613cd182613c90565b602082019050919050565b60006020820190508181036000830152613cf581613cb9565b9050919050565b7f4f776e61626c653a206e6577206f776e657220697320746865207a65726f206160008201527f6464726573730000000000000000000000000000000000000000000000000000602082015250565b6000613d58602683612a70565b9150613d6382613cfc565b604082019050919050565b60006020820190508181036000830152613d8781613d4b565b9050919050565b7f7b00000000000000000000000000000000000000000000000000000000000000600082015250565b6000613dc4600183613582565b9150613dcf82613d8e565b600182019050919050565b7f227469746c65223a220000000000000000000000000000000000000000000000600082015250565b6000613e10600983613582565b9150613e1b82613dda565b600982019050919050565b60008154613e33816134e5565b613e3d8186613582565b94506001821660008114613e585760018114613e6d57613ea0565b60ff1983168652811515820286019350613ea0565b613e76856139a6565b60005b83811015613e9857815481890152600182019150602081019050613e79565b838801955050505b50505092915050565b7f222c000000000000000000000000000000000000000000000000000000000000600082015250565b6000613edf600283613582565b9150613eea82613ea9565b600282019050919050565b7f22617574686f72223a2200000000000000000000000000000000000000000000600082015250565b6000613f2b600a83613582565b9150613f3682613ef5565b600a82019050919050565b7f22636f6e74656e74223a22000000000000000000000000000000000000000000600082015250565b6000613f77600b83613582565b9150613f8282613f41565b600b82019050919050565b7f2274696d657374616d70223a0000000000000000000000000000000000000000600082015250565b6000613fc3600c83613582565b9150613fce82613f8d565b600c82019050919050565b50565b6000613fe9600083613582565b9150613ff482613fd9565b600082019050919050565b7f7d00000000000000000000000000000000000000000000000000000000000000600082015250565b6000614035600183613582565b915061404082613fff565b600182019050919050565b600061405682613db7565b915061406182613e03565b915061406d8287613e26565b915061407882613ed2565b915061408382613f1e565b915061408f8286613e26565b915061409a82613ed2565b91506140a582613f6a565b91506140b18285613e26565b91506140bc82613ed2565b91506140c782613fb6565b91506140d382846135d9565b91506140de82613fdc565b91506140e982614028565b915081905095945050505050565b7f455243313135353a2069647320616e6420616d6f756e7473206c656e6774682060008201527f6d69736d61746368000000000000000000000000000000000000000000000000602082015250565b6000614153602883612a70565b915061415e826140f7565b604082019050919050565b6000602082019050818103600083015261418281614146565b9050919050565b7f455243313135353a207472616e7366657220746f20746865207a65726f20616460008201527f6472657373000000000000000000000000000000000000000000000000000000602082015250565b60006141e5602583612a70565b91506141f082614189565b604082019050919050565b60006020820190508181036000830152614214816141d8565b9050919050565b7f455243313135353a20696e73756666696369656e742062616c616e636520666f60008201527f72207472616e7366657200000000000000000000000000000000000000000000602082015250565b6000614277602a83612a70565b91506142828261421b565b604082019050919050565b600060208201905081810360008301526142a68161426a565b9050919050565b60006142b882612898565b91506142c383612898565b92508282019050808211156142db576142da61377f565b5b92915050565b600060408201905081810360008301526142fb8185612fab565b9050818103602083015261430f8184612fab565b90509392505050565b7f4f776e61626c653a2063616c6c6572206973206e6f7420746865206f776e6572600082015250565b600061434e602083612a70565b915061435982614318565b602082019050919050565b6000602082019050818103600083015261437d81614341565b9050919050565b7f455243313135353a2073657474696e6720617070726f76616c2073746174757360008201527f20666f722073656c660000000000000000000000000000000000000000000000602082015250565b60006143e0602983612a70565b91506143eb82614384565b604082019050919050565b6000602082019050818103600083015261440f816143d3565b9050919050565b600061442182612898565b915061442c83612898565b925082820261443a81612898565b915082820484148315176144515761445061377f565b5b5092915050565b600060408201905061446d60008301856128a2565b61447a60208301846128a2565b9392505050565b600061448c82612898565b915061449783612898565b92508282039050818111156144af576144ae61377f565b5b92915050565b7f455243313135353a206d696e7420746f20746865207a65726f2061646472657360008201527f7300000000000000000000000000000000000000000000000000000000000000602082015250565b6000614511602183612a70565b915061451c826144b5565b604082019050919050565b6000602082019050818103600083015261454081614504565b9050919050565b7f4e487b7100000000000000000000000000000000000000000000000000000000600052601260045260246000fd5b600081519050919050565b600082825260208201905092915050565b600061459d82614576565b6145a78185614581565b93506145b7818560208601612a81565b6145c081612aab565b840191505092915050565b600060a0820190506145e0600083018861302b565b6145ed602083018761302b565b81810360408301526145ff8186612fab565b905081810360608301526146138185612fab565b905081810360808301526146278184614592565b90509695505050505050565b600081519050614642816129d6565b92915050565b60006020828403121561465e5761465d6128d6565b5b600061466c84828501614633565b91505092915050565b60008160e01c9050919050565b600060033d11156146a15760046000803e61469e600051614675565b90505b90565b600060443d10614731576146b66128cc565b60043d036004823e80513d602482011167ffffffffffffffff821117156146de575050614731565b808201805167ffffffffffffffff8111156146fc5750505050614731565b80602083010160043d038501811115614719575050505050614731565b61472882602001850186612b78565b82955050505050505b90565b7f455243313135353a207472616e7366657220746f206e6f6e2d4552433131353560008201527f526563656976657220696d706c656d656e746572000000000000000000000000602082015250565b6000614790603483612a70565b915061479b82614734565b604082019050919050565b600060208201905081810360008301526147bf81614783565b9050919050565b7f455243313135353a204552433131353552656365697665722072656a6563746560008201527f6420746f6b656e73000000000000000000000000000000000000000000000000602082015250565b6000614822602883612a70565b915061482d826147c6565b604082019050919050565b6000602082019050818103600083015261485181614815565b9050919050565b600060a08201905061486d600083018861302b565b61487a602083018761302b565b61488760408301866128a2565b61489460608301856128a2565b81810360808301526148a68184614592565b9050969550505050505056fea264697066735822122088f2108a07267ee5e67aa6f0af6e5262e4c1e5f4be6b0ffe87d947aed3b0418364736f6c63430008120033",
  "linkReferences": {},
  "deployedLinkReferences": {}
}